:020000040000FA
:10000000A304020A6400A304F10AA304680BA30476
:02001000020BE1
:1001E200FE0C0600F40AA4040604A3040509A304F1
:1001F200A4040605A3040709A304F40AF40AA30449
:10020200000AA4047000710011022F0010022E00D7
:100212000F02800F2800800C88004307120BC80CC5
:100222008E000307150B160B180B670B670BA40444
:100232007200730013022F0012022E000F02800FB1
:100242002800800C88004307280B140C8E0003073B
:100252002B0B2C0B2E0B4B0B4B0B0000010C2E000F
:100262006F000E02A404F2010306B3020F02F301AF
:1002720013022F0012022E000F02800F2800800CA2
:1002820088004307460B140C8E000307490B4A0BE8
:100292002E0B4B0B010C2E006F000E02A404F0017A
:1002A2000306B1020F02F10111022F0010022E000B
:1002B2000F02800F2800800C88004307620BC80CD5
:1002C2008E000307650B660B180B670B0008A4046E
:1002D2007000710011022F0010022E000F02800F19
:1002E2002800800C88004307780BC80C8E00030797
:1002F2007B0B7C0B7E0BFF0BFF0BA40472007300C5
:1003020013022F0012022E000F02800F2800800C11
:10031200880043078E0B1E0C8E000307910B920B75
:10032200940BE30BE30BA4047400750015022F0079
:1003320014022E000F02800F2800800C8800430751
:10034200A40B0A0C8E000307A70BA80BAA0BC70B62
:10035200C70B0000010C2E006F000E02A404F40172
:100362000306B5020F02F50115022F0014022E003A
:100372000F02800F2800800C88004307C20B0A0C72
:100382008E000307C50BC60BAA0BC70B010C2E0070
:100392006F000E02A404F2010306B3020F02F3017E
:1003A20013022F0012022E000F02800F2800800C71
:1003B20088004307DE0B1E0C8E000307E10BE20BE5
:1003C200940BE30B010C2E006F000E02A404F0014B
:1003D2000306B1020F02F10111022F0010022E00DA
:1003E2000F02800F2800800C88004307FA0BC80C0C
:0E03F2008E000307FD0BFE0B7E0BFF0B0008B9
:021FFE00EAFFF8
:00000001FF
